:020000040800F2
:10A00000F8F9002045A10008FD29010889DC0008B5
:10A01000DD290108C9B600083969010800000000FF
:10A02000000000000000000000000000494B010893
:10A030006DC000080000000061350108B54E010840
:10A040005FA100085FA100085FA100085FA10008F0
:10A050005FA100085FA10008B5C000085FA100086B
:10A060005FA100085FA100085FA100085FA10008D0
:10A070005FA100085FA100085FA100085FA10008C0
:10A080005FA100085FA100085FA100085FA10008B0
:10A090002D6901085FA100085FA100085FA1000809
:10A0A0005FA100085FA100085FA100085FA1000890
:10A0B0005FA10008A14F01086D5401085FA10008CD
:10A0C0005FA100085FA100085FA100085FA1000870
:10A0D0005FA10008B16601085FA100085FA1000848
:10A0E0005FA100085FA100085FA100085FA1000850
:10A0F0005FA100085FA100085FA100085FA1000840
:10A100005FA1000839390108F55401085FA1000872
:10A110005FA100085FA10008A95501085FA1000820
:10A120005FA100085FA100085FA1000865BE0008EC
:10A13000DFF80CD000F05EFE0048004735800208D2
:10A14000F8F900200648804706480047FEE7FEE78A
:10A15000FEE7FEE7FEE7FEE7FEE7FEE7FEE7FEE7D7
:10A16000414F010831A100082DE9F05F05460020AC
:10A1700092469B4688460646814640241BE0284678
:10A1800041464746224600F054FC53465A46C01A00
:10A19000914110D311461846224600F03BFC2D1A7F
:10A1A00067EB01084F4622460120002100F032FCF7
:10A1B00017EB00094E41201EA4F10104DFDC4846E4
:10A1C00031462A464346BDE8F09F2DE9F041002480
:10A1D000061B254671F1000605DA01240027D0EBA5
:10A1E000070067EB0101161E73F1000605DA002770
:10A1F000D2EB0702012567EB0303FFF7B5FF8646A5
:10A200000E4617469C46AC4204D00025D0EB050E06
:10A2100065EB010624B10020D2EB000760EB030CD4
:10A22000704631463A466346BDE8F081421E12F858
:10A23000013F002BFBD111F8013B02F8013B002B41
:10A24000F9D1704730B505462A460B4612F8010B86
:10A2500013F8014B08B1A042F8D01CB1002802D07D
:10A260006D1CF1E7284630BD10B5044604E00B78BC
:10A2700000F8013B03B1491C521EF8D2204610BD24
:10A28000CAB2401E10F8011F8A4202D00029F9D13B
:10A2900000207047421C10F8011B0029FBD1801AD6
:10A2A000704710B5002200E0521C835C8C5CA34216
:10A2B00001D1002BF8D1D8B2E1B2401A10BD03464B
:10A2C00011F8012B00F8012B002AF9D1184670472C
:10A2D0002DE9F04791460F4680460446002614F8C3
:10A2E000015B2DB100F0C8FB0068405DC007F6D1EE
:10A2F0002B2D02D02D2D18D0641E4A4639462046FB
:10A3000000F0C7FB27B13968A14201D1C7F800802E
:10A3100071054FF002040BD54042002803DD0CF01C
:10A32000E9FC0460A007BDE8F08746F48066E4E736
:10A330000028F8DA0CF0DEFC04606FF00040F2E771
:10A34000F0B480EA0102D40F4200B2EB410F02D216
:10A350000246084611464A0042D0C30DDDB2C1F3A1
:10A36000C752AD1A202D35DAC1F3160141F40002AF
:10A3700004B15242C5F1200602FA06F12A41104406
:10A38000B3EBD05F23D0C4B1012DA0EBC35009DCE7
:10A39000F0BC4FF0004202EAC352DBB200F500000D
:10A3A00000F01DBC400000F1807000EBC350A0F134
:10A3B000807040EAD170490009E0490841EAC07163
:10A3C000A0EBC35000F50000400800EBC350F0BC08
:10A3D00000F0FCBB6142012202EB4101001BF6E7E9
:10A3E000F0BC704781F00041AAE780F00040A7E789
:10A3F00080EA010210B502F00043400022D04A007A
:10A400001FD0010E01EB1261C0F35600C2F35602D9
:10A4100040F4000042F40002A0FB022000047F3957
:10A42000140400D0401C50EA124001D44000491EE0
:10A43000C2B20C0604EBD010401C4008802A02D0A7
:10A4400003E0002010BD20F00100002900DA002008
:10A45000184310BD30B480EA010202F0004530F02C
:10A46000004221F0004013D090B1C30DD40DC2F3CF
:10A470001601C0F31600E41A41F4000140F4000292
:10A480007D34914201D3641C00E04900002C02DAC3
:10A4900030BC002070474FF400000023914201D3EC
:10A4A000891A034340084FEA4101F7D151B1914263
:10A4B00002D14FF0004105E002D24FF0010101E06E
:10A4C0006FF0010103EBC450284430BC00F07EBBA8
:10A4D0002DE9FE4F804681EA0300C00F0C46009034
:10A4E00021F0004123F00045B8EB0200A94105D25C
:10A4F0004046214690461C460B46024623F000404B
:10A50000104347D0270DC7F30A00C3F30A51029046
:10A51000401A019040286BDAC3F3130040F4801B0B
:10A520000098924620B10023D2EB030A63EB0B0B99
:10A5300001985946C0F14002504600F06BFA0646B9
:10A540000D4650465946019A00F083FA10EB080078
:10A550006141002487EA115284EAE7731A4340D02C
:10A56000009A62B3019A012A4FEA075215DC001BD8
:10A5700061EB02014FF0004202EA0752CDE90042CE
:10A58000001C41F5801132462B4600F065FB03B0FC
:10A59000BDE8F08F40462146F9E7001B61EB020160
:10A5A000001C41F5801300185B412018A2F500172C
:10A5B00047EB030140EAD570B6196D4111E06D0813
:10A5C0004FEA360645EAC0754FEA0752001B61EBB9
:10A5D0000201001C41F5801149084FEA30000019C2
:10A5E000514132462B4603B0BDE8F04F00F025BB89
:10A5F0000098012240000023D0EB020263EBE073DD
:10A60000009821464FEAE074B8EB000061EB0401CA
:10A61000E9E783F000435BE781F0004158E72DE96B
:10A62000FE4F81EA030404F0004421F0004100944D
:10A630004FF0000B23F0004350EA01045ED052EAD1
:10A6400003045BD0C3F30A54C1F30A552C44A4F2AB
:10A65000F3340194A0FB0254C1F3130141F48011BF
:10A66000C3F3130343F4801301FB024400FB034EC6
:10A67000840A970A44EA815447EA8357A4FB07688F
:10A6800002958D0A05FB07854FEA932C04FB0C54B9
:10A690002705029D4FEA065847EA1637B5EB08052D
:10A6A0006EEB070C870E920E47EA811742EA83127F
:10A6B000A7FB0201B6EB0B0164EB00042B0D43EA90
:10A6C0000C335E1844EB1C50DA465146E7FB02019E
:10A6D000C5F313044FEA0B3343EA14534FEA043231
:10A6E000019C43EA0603A4F10C040294009CCDE90A
:10A6F00000B400F0B1FA03B0BDE8F08F00200146CD
:10A70000F9E72DE9F04D81EA030404F0004B21F054
:10A71000004514464FF0000A23F0004150EA0502BC
:10A7200020D054EA01021DD0C5F30A570246C5F3F2
:10A730001303C1F31300C1F30A5640F4801543F428
:10A740008013A7EB0608101BD64608F2FD3873EB02
:10A75000050002D308F1010801E092185B41B8F14D
:10A76000000F03DA00200146BDE8F08D00204FF411
:10A770008011064684460EE0171B73EB050705D3D0
:10A78000121B63EB050306434CEA010C49084FEA30
:10A79000300092185B4150EA0107EDD152EA030004
:10A7A00012D082EA040083EA0501084305D0101B99
:10A7B000AB4106D20122002306E000224FF0004305
:10A7C00002E06FF0010253101AEB06004CEB085147
:10A7D00010EB0A0041EB0B01BDE8F04D00F02DBA83
:10A7E000C10F80EAE0700844CA079623002100F0F8
:10A7F000F6B996230022114600F0F1B90EB5C10F4B
:10A8000080EAE0700844CA07002140F233438DE833
:10A810000E000A460B4600F01FFA03B000BD0EB54D
:10A8200040F2334102910021CDE900110A460B4666
:10A8300000F012FA03B000BD00F0004220F000402A
:10A84000C10DC0F3160040F400007F2901DA00209A
:10A850007047962903DCC1F19601C84001E09639A2
:10A860008840002AF4D04042704720F00040C10DDB
:10A87000C0F3160040F400007F2901DA0020704781
:10A88000962903DCC1F19601C8407047963988408B
:10A89000704770B5C1F30A5201F000450024C1F3BE
:10A8A000130140F2FF3341F480119A4201DA002093
:10A8B00070BD40F233439A42A2F2334203DC52426B
:10A8C00000F0B7F800E090402C43F1D0404270BD5A
:10A8D000C1F30A5210B5C1F3130140F2FF3341F442
:10A8E00080119A4201DA002010BD40F233439A42AF
:10A8F000A2F2334203DC524200F09BF810BD9040BC
:10A9000010BD00F0004230F000400AD0C10D01F54A
:10A910006071C0F3160042EA0151C20840071143BA
:10A92000704700200146704730B5041E71F10004E5
:10A9300004DB4FF00044404264EB0101141E73F14C
:10A94000000405DB1C464FF00043524263EB040356
:10A950008B4208BF824230BD30B5041E71F1000445
:10A9600004DB4FF00044404264EB0101141E73F11C
:10A97000000405DB1C464FF00043524263EB040326
:10A98000994208BF904230BD01F0004330B421F03D
:10A99000004150EA010206D00A0DA2F56072C1F32F
:10A9A0001301002A02DC30BC00207047440F44EA47
:10A9B000C104C100E01830BC00EBC25000F006B981
:10A9C000002801DBC0F10040002901DBC1F100419A
:10A9D00081427047002801DBC0F10040002901DB03
:10A9E000C1F100418842704730B50B460146002056
:10A9F0002022012409E021FA02F59D4205D303FA41
:10AA000002F5491B04FA02F52844151EA2F10102C1
:10AA1000F1DC30BD202A04DB203A00FA02F10020EC
:10AA200070479140C2F1200320FA03F3194390408C
:10AA30007047202A04DB203A21FA02F000217047F7
:10AA400021FA02F3D040C2F1200291400843194696
:10AA50007047202A06DBCB17203A41FA02F043EA7E
:10AA6000E07306E041FA02F3D040C2F120029140C7
:10AA70000843194670470000004870474C750308AA
:10AA800010B50446FFF7F8FF0068005D00F0010014
:10AA900010BD2DE9F05F82460078002715468B46F1
:10AAA0000AF10104B946302801D09DB113E014F831
:10AAB000010B0127782803D0582801D045B10AE0BE
:10AAC0000DB1102D07D10027102514F8010B02E05D
:10AAD000082500E00A250026B0460EE005FB080028
:10AAE00005FB06F1012701EB10461FFA80F8B6F5C9
:10AAF000803F00D3B94614F8010B294600F08CF9C9
:10AB00000028EBDABBF1000F05D00FB1641E00E0A6
:10AB10005446CBF80040B9F1000F06D00CF0EAF82B
:10AB200002210160C81EBDE8F09F48EA0640FAE72E
:10AB30000FB4002300B589B00CA900910B996FF0F8
:10AB40000042CB601E4B06931E4B07930423CDE9B6
:10AB500001321D4A089202466B46002000F0FEF9C1
:10AB600009B05DF814FB70B586B006464FF0FF30B3
:10AB70000091CDE90101002015460C4604903246B3
:10AB8000694604A8FFF7D4FF02460498211825B1AE
:10AB900008B1084600E020462860049800280DD03F
:10ABA000002A02DD0098884208D0081B0094CDE9F5
:10ABB00001043246694604A8FFF7BAFF06B070BD2B
:10ABC00095B10008B3B1000881AA00080029A8BF08
:10ABD0007047401C490008BF20F00100704710B4C6
:10ABE000B0FA80FC00FA0CF050EA010404BF10BC7B
:10ABF000704749B1CCF1200421FA04F411FA0CF1A8
:10AC000018BF012121430843A3EB0C01CB1D4FEAE0
:10AC100000614FEA102042BF002010BC704700EBDB
:10AC2000C35010440029A4BF10BC7047401C490009
:10AC300008BF20F0010010BC704710B5141E73F15E
:10AC4000000408DA401C41F1000192185B411A43EC
:10AC500001D120F0010010BD2DE9F04D92469B4638
:10AC600011B1B1FA81F202E0B0FA80F220329046DE
:10AC7000FFF7D0FE04460F4640EA0A0041EA0B0106
:10AC800053465A46084313D0114653EA010019D0DF
:10AC9000C8F140025046FFF7CCFE05460E4650462E
:10ACA00059464246FFF7B6FE084305D0012004E0AE
:10ACB00020463946BDE8F08D0020054346EAE0769F
:10ACC0002C4337430A986305E40AA0EB08000022EE
:10ACD000FD0A44EA47540A3002D500200146E9E75C
:10ACE000010510196941DDE9084500196941BDE810
:10ACF000F04DA2E770B521F0004303430CD0C1F33F
:10AD00000A550024D5EB040564EB0403D617AD1AED
:10AD1000B34102DB0020014670BD201841EB025117
:10AD200070BD2DE9F04D00231A461B1A8A4103DB42
:10AD300000200146BDE8F08DC1F30A52C1F31301B2
:10AD400041F480154FF0000BD10702D100186D417E
:10AD5000521E0027044640F2FF11384601EB620AFA
:10AD60003E468046024600204FF48011FFF761FE08
:10AD7000C2197141BB1846EB0100B4EB030C75EB33
:10AD8000000C04D3E41A65EB000517460E4624199F
:10AD900008F101006D4180463428E3DDF91946EBE6
:10ADA0000600091BA84103D24FF0FF32134601E011
:10ADB000002213461BEB070046EB0A51BDE8F04D9D
:10ADC000FFF73BBFC1F30A52C1F3130140F2FF3357
:10ADD00041F480119A4202DA00200146704740F2A5
:10ADE00033439A42A2F2334202DC5242FFF721BEC1
:10ADF000FFF710BE064C074D06E0E06840F0010387
:10AE000094E8070098471034AC42F6D3FFF794F962
:10AE10005C9603087C9603083A2800D2303820F06C
:10AE20002002412A01D3A2F13700884201D34FF01A
:10AE3000FF3070472DE9FF4F087883B09946FF280F
:10AE400005D0491C2D2804D00024002008E0002053
:10AE50000BE00124F9E700EB800003EB4000491C04
:10AE60000B78FF2BF7D104B14042002302931478F2
:10AE700019461D462D2C01D02B2C04D1521C2D2CF3
:10AE800013D000240294AA461478FF2C0FD00A2570
:10AE9000A3FB057801FB05814FF0000C03FB0C11AF
:10AEA000521CE3194AEB0101EEE70124EAE7814471
:10AEB00053EA010002D019F5C87F06DA0398002191
:10AEC000C0E9001107B0BDE8F08F0025AE4E2F4657
:10AED000DFF8B882184600F07DF9CDE90001B9F13C
:10AEE000000002DAC9F1000400E004460023A74A8A
:10AEF0001AEB030B42EB045A12E0E00707D02A4694
:10AF0000334638464146FFF78AFB074688462A46BD
:10AF1000334610461946FFF782FB05460E4664107D
:10AF2000002CEAD1DDE90001B9F1000F5A46534681
:10AF300006DAFFF7E6FB3A464346FFF7E2FB05E099
:10AF4000FFF76DFB3A464346FFF769FB029A0AB1E9
:10AF500081F00041039AC2E90001B3E72DE9FF4FF8
:10AF60001F468DB0D7E901464FF0FF382E204546E9
:10AF70004FF000090B90B9696D1C0E988847396A2B
:10AF8000824688470028F6D1BAF1FF3F0AD024F460
:10AF9000D064002E11DDBAF12B0F08D0BAF12D0FBD
:10AFA0000BD102E0404611B08DE744F48064B969EA
:10AFB0006D1C0E9888478246761E6946600501D54D
:10AFC0002D2000E02B208DF8000001F1010B0DF188
:10AFD000200809E0B9696D1C0E98884782460F98D1
:10AFE00044F40074761E0560002E02DDBAF1300FC5
:10AFF000F0D00B998A453ED144F0800406E00F99C9
:10B00000681CA9F1010944F400740860B9696D1C59
:10B01000761E0E98884782463028F0D02BE00B9998
:10B020008A4505D1200603D444F08004761E18E03A
:10B0300050460CF06BFA08B30DF11301761E44F480
:10B0400000748B4508D2AAF130000BF8010B2006E2
:10B0500007D5A9F1010003E0200602D409F101009F
:10B060008146A00502D50F99681C0860B9696D1C5E
:10B070000E9888478246002ED1DC53E0002E51DD29
:10B08000BAF1650F02D0BAF1450F4BD1A00549D5F1
:10B09000B9696D1C24F44074761E0E988847824668
:10B0A000002E0CDD2B2804D0BAF12D0F07D144F46B
:10B0B0008074B9696D1C0E9888478246761EE0053B
:10B0C00001D52D2100E02B2108F8011BCDF82C80A3
:10B0D00021E00DF12901761E44F4007488450CD25C
:10B0E000AAF1300010F0FF0088F8000002D10B999F
:10B0F000884509D908F1010806E0E00501D5244892
:10B1000001E042F20F708146B9696D1C0E988847C4
:10B1100082460F980560002E04DD50460CF0F6F9CB
:10B120000028D6D1F9690E988847FF208BF80000D7
:10B1300088F800000020069007904B466A4608A950
:10B1400006A8FFF777FEA00502D46FF001002AE7FA
:10B1500014F0240F0AD0E00714D1DDE90612386894
:10B16000031D3B600068C0E900120BE0DDE9060149
:10B17000FFF70AFC0146E00704D13868021D3A6077
:10B180000068016028460EE7000014400000F03F10
:10B19000F1D8FFFF426842B1016811F8013B23B1C9
:10B1A000521EC0E90012184670470121C160881E76
:10B1B000704742685AB1C368016843B983688B42DB
:10B1C00005D0491E521CC0E90012002070474FF004
:10B1D000FF3070470EB540F2334202920022CDE9B3
:10B1E00000221346FFF738FD03B000BD70B58C1880
:10B1F00010F8015B15F0070301D110F8013B2A118B
:10B2000006D110F8012B03E010F8016B01F8016B77
:10B210005B1EF9D12B0705D40023521E0DD401F873
:10B22000013BFAE710F8013BCB1A921C03E013F83C
:10B23000015B01F8015B521EF9D5A142D8D3002071
:10B2400070BD21B1826842F00102826003E0826831
:10B2500022F001028260704710B504461248844211
:10B2600008D10121401508F0EBF90021601508F024
:10B27000E7F917E00D48844208D10121001508F0D4
:10B28000DFF90021201508F0DBF90BE008488442C3
:10B2900008D10121C80308F0D3F900214FF4004080
:10B2A00008F0CEF910BD0000002401400028014044
:10B2B000003C0140014600208A6802F004020AB105
:10B2C000012000E0002070470146C86C80B2704742
:10B2D0000246002013680B400BB1012000E0002063
:10B2E0007047014600208A6802F008020AB1012076
:10B2F00000E000207047000030B502460020002327
:10B3000050680F4C20400D790C6844EA0524204316
:10B31000506090680B4C2040D1E902542C434D7989
:10B3200044EA450420439060D06A20F470000C7C0D
:10B33000641EE4B2234340EA0350D06230BD0000F3
:10B34000FFFEF0FFFDF7F1FFF0B504460D460020CB
:10B350000021092D11DDE068A5F10A0606EB46077C
:10B36000072606FA07F18843A5F10A0606EB46060A
:10B3700003FA06F10843E0600CE0206905EB45079D
:10B38000072606FA07F1884305EB450603FA06F19E
:10B3900008432061072A0FDA606B561E06EB86070A
:10B3A0001F2606FA07F18843561E06EB860605FAA5
:10B3B00006F10843606322E00D2A0FDA206BD61FE6
:10B3C00006EB86071F2606FA07F18843D61F06EB11
:10B3D000860605FA06F10843206310E0E06AA2F150
:10B3E0000D0606EB86071F2606FA07F18843A2F131
:10B3F0000D0606EB860605FA06F10843E062F0BD8D
:10B40000816841F008018160704721B1826842F48F
:10B41000A002826003E0826822F4A002826070478A
:10B42000816841F004018160704710B5FF2000F091
:10B4300028F80446552C01D1002010BD5521FF20CD
:10B4400000F05BF8FF2000F01CF80446552C01D1F9
:10B450000020F2E70120F0E710B502F04BFC10BD30
:10B4600070B506460C46154608E03046721C96B28A
:10B4700000F007F804F8010B681E85B2002DF4D126
:10B4800070BD70B50446002602F0E4FCA02002F076
:10B49000ADFC02F02BFD201202F0A8FC02F026FD0C
:10B4A0002546E11704EB11610912A4EB0121C8B292
:10B4B00002F09CFC02F01AFD02F0CCFCA12002F08C
:10B4C00095FC02F013FD002002F058FC064602F045
:10B4D000E7FC304670BD70B505460C46164606E0E2
:10B4E0002178284600F009F8681C85B2641C301EDB
:10B4F000A6F101018EB2F3D170BD70B504460E46BF
:10B5000002F0A8FCA02002F071FC02F0EFFC201277
:10B5100002F06CFC02F0EAFC2546E11704EB116135
:10B520000912A4EB0121C8B202F060FC02F0DEFCBB
:10B53000304602F05BFC02F0D9FC02F0B1FC43F6AD
:10B5400098200DF005FA70BD00B587B0012148F2D2
:10B55000100008F065F84FF4004008F025F80020CE
:10B560008DF807000420ADF8040001A91B4800F085
:10B57000C3FF0220ADF8040001A9184800F0BCFF89
:10B580001748FFF769FE002002908DF80C008DF837
:10B590000D004FF4602004900020059001208DF8EC
:10B5A000180002A90E48FFF7A7FE01210C48FFF77B
:10B5B00048FE0B48FFF724FF00BF0948FFF791FE44
:10B5C0000028FAD10648FFF72BFF00BF0448FFF719
:10B5D00071FE0028FAD107B000BD00000010014044
:10B5E000003C014008B50121102008F019F808209E
:10B5F000ADF8000010208DF8030003208DF8020044
:10B600006946044800F078FF0821024801F051F82B
:10B6100008BD00000010014070B504460D461248F8
:10B620008068401C1049886008468068A04205D2A6
:10B630004FF49671642000F01BF814E00A4880680B
:10B64000A04207D308488068A84203D200200749D7
:10B65000086008E004488068A84204D3002002493A
:10B6600088600249086070BD341600208C012242B7
:10B67000114A5268521C104B5A601A465268824254
:10B6800003D201220D4B1A6014E00B4A5268824229
:10B6900007D3094A52688A4203D20022074B1A6034
:10B6A00008E0054A52688A4204D30022034B1A601C
:10B6B000014B5A6070470000341600208C01224272
:10B6C00010B529F043F910BD02E002A00BF0C4FA56
:10B6D000FBE70000427573204661756C740D0A002B
:10B6E00010B5054800680549086005A01CF016FC67
:10B6F00004A01CF013FC10BD0C0000202804002046
:10B700006F6B00000A00000070B500254FF4803414
:10B7100000E0641E24B1802008F0E2F80028F8D090
:10B7200014B90325284670BD40F2FF5008F090F888
:10B730002846F8E72DE9F041064600274848456BC2
:10B7400001E04748456B05F045000028F9D005F0B9
:10B75000040030B10327042008F07AF83846BDE829
:10B76000F08105F0010028B10127012008F070F8F0
:10B770003846F4E708F0AEF8B04202D01027384659
:10B78000EDE740F2FF5008F063F8002008F0C8F839
:10B7900004463448204008B93846E0E704F0004049
:10B7A00008B11C20DBE704F0804008B10920D6E78F
:10B7B00004F0005008B10A20D1E704F0805008B12D
:10B7C0000B20CCE704F0006008B10C20C7E704F0C0
:10B7D000806008B10D20C2E704F0807008B10E202F
:10B7E000BDE704F4000008B10F20B8E704F48000BE
:10B7F00008B11020B3E704F4001008B11120AEE73F
:10B8000004F4801008B11220A9E704F4002008B164
:10B810001320A4E704F4802008B114209FE704F467
:10B82000003008B115209AE704F4803008B11620E2
:10B8300095E704F4004008B1172090E704F4804035
:10B8400008B118208BE704F4005008B1192086E7EE
:10B8500004F0080008B11A2081E738467FE70000AD
:10B860000080014008E0FFFD70B500251048446BE2
:10B8700001E00F48446B04F045000028F9D004F0C3
:10B88000040028B10325042007F0E2FF284670BD1C
:10B8900004F0010028B10125012007F0D9FF284656
:10B8A000F5E740F2FF5007F0D3FF2846EFE700002E
:10B8B0000080014070B500250B48446B01E00A4848
:10B8C000446B04F045000028F9D004F0040028B1CE
:10B8D0000325042007F0BCFF284670BD40F2FF504E
:10B8E00007F0B6FF2846F8E7008001402DE9F04157
:10B8F00006460F464FF000082248456B01E02148FC
:10B90000456B05F045000028F9D005F0040038B17A
:10B910004FF00308042007F09BFF4046BDE8F0818C
:10B9200005F0010030B14FF00108012007F090FF51
:10B930004046F3E707F0CEFFB04203D04FF01008C7
:10B940004046EBE740F2FF5007F082FF002007F08F
:10B95000E7FF044604F4604018B9200C38804046E4
:10B96000DCE704F4005008B11320D7E704F480406A
:10B9700008B11020D2E704F4004008B10F20CDE751
:10B980004046CBE70080014070B500264FF480357B
:10B990000F48446B02E06D1E0D48446B04F04500F7
:10B9A00008B9002DF7D115B104F0040028B1032621
:10B9B000042007F04DFF304670BD04F0400028B170
:10B9C0000026402007F044FF3046F5E73046F3E715
:10B9D000008001402DE9FC4104461A4920680860B6
:10B9E00060684860A0688860E068C86016480068C1
:10B9F00016490860164EF368B268716830681FF027
:10BA000053FF144911480068FEF724FD064612480A
:10BA100000780C4FCDE90060FB68BA687968386837
:10BA20001EF0B4FE002507E0064850F8250008493E
:10BA300041F82500681CC5B2042DF5DB26F0E0FCBA
:10BA4000BDE8FC8100C20020A0030020F00300201C
:10BA5000B8C1002000007042E603002070B598A035
:10BA60000BF0FAF898A00BF0F7F895A00BF0F4F8AB
:10BA700099490868FEF745FF044622460B4697A001
:10BA80000BF0EAF894494868FEF73BFF044622466B
:10BA90000B4695A00BF0E0F88F498868FEF731FF60
:10BAA000044622460B4692A00BF0D6F88A49C86895
:10BAB000FEF727FF044622460B468FA00BF0CCF87A
:10BAC0007FA00BF0C9F88EA00BF0C6F87CA00BF09D
:10BAD000C3F892490868FEF714FF044622460B4655
:10BAE0008FA00BF0B9F88D494868FEF70AFF0446AD
:10BAF00022460B467CA00BF0AFF888498868FEF719
:10BB000000FF044622460B4679A00BF0A5F88349B6
:10BB1000C868FEF7F6FE044622460B4676A00BF0F8
:10BB20009BF867A00BF098F880A00BF095F864A044
:10BB30000BF092F88548016885A00BF08DF88348DA
:10BB4000416886A00BF088F88048816885A00BF0DA
:10BB500083F87E48C16885A00BF07EF858A00BF0F2
:10BB60007BF884A00BF078F855A00BF075F88F489F
:10BB70000068FEF7C6FE044622460B468CA00BF07A
:10BB80006BF88E480068FEF7BCFE044622460B4662
:10BB90008BA00BF061F84AA00BF05EF88A480BF01E
:10BBA0005BF847A00BF058F888480068FEF7A9FE3C
:10BBB000044622460B4686A00BF04EF887480068E4
:10BBC000FEF79FFE044622460B4685A00BF044F884
:10BBD0008548016885A00BF03FF886480068FEF7AD
:10BBE00090FE044622460B4683A00BF035F88448AD
:10BBF0000068FEF786FE044622460B463CA00BF08A
:10BC00002BF880480068FEF77CFE044622460B466F
:10BC100039A00BF021F82AA00BF01EF87AA00BF047
:10BC20001BF827A00BF018F87C490868FEF769FE9E
:10BC3000044622460B467AA00BF00EF87749486876
:10BC4000FEF75FFE044622460B4627A00BF004F8E1
:10BC500072498868FEF755FE044622460B4624A02A
:10BC60000AF0FAFF16A00AF0F7FF70A00AF0F4FF3E
:10BC700013A00AF0F1FF71480068FEF742FE044687
:10BC800022460B466EA00AF0E7FF7048006827F0D6
:10BC900045FF0646FEF735FE044622460B466CA0DD
:10BCA0000AF0DAFF6C48006827F024FF0646FEF72A
:10BCB00028FE044622460B4668A00AF0CDFF70BD60
:10BCC0006563686F3A000000537465707320706597
:10BCD0007220756E69743A005004002020204D399E
:10BCE000322058256600000020592566000000001B
:10BCF000205A256600000000204525660D0A000038
:10BD00004D6178696D756D206665656472617465F5
:10BD10007320286D6D2F73293A0D0A00400400200E
:10BD200020204D3230332058256600004D6178695F
:10BD30006D756D20416363656C65726174696F6ECA
:10BD400020286D6D2F7332293A0D0A0060040020FF
:10BD500020204D3230312058256C64002059256C4C
:10BD600064000000205A256C640000002045256C0A
:10BD7000640D0A00416363656C65726174696F6E7E
:10BD80003A20533D616363656C65726174696F6EDF
:10BD90002C20543D72657472616374206163636525
:10BDA0006C65726174696F6E0D0A00007804002082
:10BDB00020204D3230342053256600007C040020C2
:10BDC000205425660D0A0000909403087404002096
:10BDD00020204D3230352053256600008C04002091
:10BDE0002054256600000000700400202042256CCD
:10BDF0006400000080040020205825660000000038
:10BE00008404002088040020486F6D65206F6666FA
:10BE100073657420286D6D293A0D0A00E8C1002071
:10BE200020204D32303620582566000050494420ED
:10BE300073657474696E67733A0D0A0038030020E5
:10BE40002020204D33303120502566003C03002057
:10BE5000204925660000000040030020204425669C
:10BE60000D0A000010B508F00DFA10BD00F0805169
:10BE700011B10349086001E00249486070470000C1
:10BE8000040402400000024021B1026842F00102B5
:10BE9000026004E002684FF6FE731A4002607047C9
:10BEA00001684FF6FE72114001600021016041609F
:10BEB0008160C1604B49884208D14A4908394968C4
:10BEC00041F00F01474A083A51608AE04549143170
:10BED000884208D143490839496841F0F001414A94
:10BEE000083A51607DE03F492831884208D13D49F8
:10BEF0000839496841F470613A4A083A516070E083
:10BF000038493C31884208D136490839496841F4FA
:10BF10007041344A083A516063E0324950318842F6
:10BF200008D130490839496841F470212D4A083A4E
:10BF3000516056E02B496431884208D129490839BB
:10BF4000496841F47001274A083A516049E025499F
:10BF50007831884208D123490839496841F0706135
:10BF6000204A083A51603CE01F49884206D1011F2F
:10BF7000096841F00F01021F116032E01A491431C3
:10BF8000884208D11849091F096841F0F001164A92
:10BF9000121F116025E014492831884208D1124946
:10BFA000091F096841F470610F4A121F116018E0FF
:10BFB0000D493C31884208D10B49091F096841F4F9
:10BFC0007041094A121F11600BE007495031884245
:10BFD00007D10549091F096841F47021024A121F5F
:10BFE000116070470800024008040240014600202A
:10BFF000002201F0805313B1054B1A6801E0054B94
:10C000001A6802EA01030BB1012000E0002070472A
:10C0100000040240000002401AB103680B430360B1
:10C0200002E003688B430360704710B5002202688A
:10C0300047F6F0739A430C6A8B6823430C692343D9
:10C040004C6923438C692343CC6923434C6A2343C3
:10C050008C6A23431A430260CB6843600B68836099
:10C060004B68C36010BD41607047000010B502A06E
:10C070000AF0F2FD10BD000044656275674D6F6EF9
:10C080000D0A000010B50948007801280CD101F014
:10C090005FFF00200549087001F05CFF00200449A3
:10C0A000086002494860886010BD00003416002016
:10C0B0008C01224210B5012000F020F860B101206F
:10C0C00000F016F805A00AF0C7FD20F0B1FC002032
:10C0D0000649086008F08AFE10BD000023706F77E3
:10C0E000657220646F776E0D0A000000AC812342F8
:10C0F0000149086070470000140401400146002017
:10C100000022074B1B6803EA0102054B14331B682E
:10C110000B4013B10AB1012000E00020704700007D
:10C1200000040140002123498279002A3AD00A46BE
:10C13000126803689A430B461A600A1D1268036866
:10C140009A430B1D1A60027911440A6803681A4366
:10C150000A60184A0832126803689A43154B08337C
:10C160001A601A1D126803689A43124B0C331A6046
:10C170004279102A0ED11A1F126803681A430D4B18
:10C1800008331A601A1D126803681A43094B0C33EE
:10C190001A600DE00749427911440A6803681A439E
:10C1A0000A6005E0027911440A6803689A430A604C
:10C1B000704700000004014010B50548007830B910
:10C1C00001F0C6FE01200249087001F0C3FE10BD57
:10C1D0003416002051B18200A2F1C042126842F030
:10C1E00001038200A2F1C042136009E08200A2F1C3
:10C1F000C0421268034B1A408300A3F1C0431A6087
:10C2000070470000FEFF0F00D0E901121143C26821
:10C210001143026911434269114382691143C269A2
:10C220001143026A1143426A1143826A1143C26A8E
:10C230001143026B114302689200A2F1C0421160E7
:10C24000816808290BD101688900A1F1C041096802
:10C2500041F0400201688900A1F1C0410A60416BD0
:10C260000968426B526841EA0211426B926841EAE6
:10C270000221426B928941EA0241426B128A41EAF1
:10C280000251426B127D41EA0261426B9269114395
:10C290000268521C9200A2F1C0421160C16AB1F55D
:10C2A000804F1BD1816B0968826B526841EA021191
:10C2B000826B926841EA0221826B128A41EA025142
:10C2C000826B127D41EA0261826B926911430268BE
:10C2D0009200A2F1C042C2F8041107E06FF0704270
:10C2E00001688900A1F1C041C1F804217047000034
:10C2F0002DE9FC4107460D46002600240020009051
:10C30000019008205A490860102048604020886049
:10C310000020C8604FF480600861084607F058FBB1
:10C320001020FFF707FA044614B12046BDE8FC814F
:10C330005048008800044E4908603720486040207B
:10C3400088600020C8604FF480600861084607F0EC
:10C350003FFB3720FFF7EEF904460CB12046E5E736
:10C36000454846490860082048603020886002201F
:10C37000C8600020086101204861084607F080FA83
:10C3800000203B490860332048604020886000203E
:10C39000C8604FF480600861084607F019FB33203D
:10C3A000FFF7C8F904460CB12046BFE709E04FF497
:10C3B000001007F095FA20B107F004FB4DF82600B5
:10C3C000761C2F48406B40F22A6108400028EED0CE
:10C3D000082007F085FA28B1082007F039FA04246C
:10C3E0002046A3E7022007F07BFA28B1022007F0DD
:10C3F0002FFA0224204699E7202007F071FA28B18D
:10C40000202007F025FA062420468FE74FF400701D
:10C4100007F066FA30B14FF4007007F019FA0724FC
:10C42000204683E740F2FF5007F012FA009800061A
:10C43000009901F47F4140EA0120009901F47F0155
:10C4400040EA1120009940EA1160686001980006F6
:10C45000019901F47F4140EA0120019901F47F0133
:10C4600040EA1120019940EA1160286020465DE70A
:10C47000F0160020AC000020FFFF0F000417002082
:10C480000080014010B506F083FA06A01BF046FDBF
:10C4900007480168491C07A01BF040FDFFF720F981
:10C4A00010BD0000526573656E643A200000000004
:10C4B0000004002025640A0030B500228B071C0F01
:10C4C0000F2303FA04F20B4B8C1053F824309343E0
:10C4D000084C8D1044F8253023468C1053F8243036
:10C4E0008C07240F00FA04F42343024C8D1044F807
:10C4F000253030BD080001402DE9F04102460025FD
:10C500000026002000230024002791F803C00CF02F
:10C510000F0591F803C00CF0100CBCF1000F03D014
:10C5200091F802C04CEA050591F800C0BCF1000F7B
:10C5300031D0146800202BE04FF0010C0CFA00F30E
:10C54000B1F800C00CEA03069E4220D183004FF0F0
:10C550000F0C0CFA03F7BC4305FA03FC4CEA040485
:10C5600091F803C0BCF1280F06D14FF0010C0CFA72
:10C5700000FCC2F814C00AE091F803C0BCF1480FF7
:10C5800005D14FF0010C0CFA00FCC2F810C0401CA1
:10C590000828D1D31460B1F800C0BCF1FF0F34DD1E
:10C5A000546800202EE000F1080C4FF0010808FA52
:10C5B0000CF3B1F800C00CEA03069E4221D18300BF
:10C5C0004FF00F0C0CFA03F7BC4305FA03FC4CEADE
:10C5D000040491F803C0BCF1280F05D100F1080C48
:10C5E00008FA0CF8C2F8148091F803C0BCF1480FA7
:10C5F00007D100F1080C4FF0010808FA0CF8C2F856
:10C600001080401C0828CED35460BDE8F0810000A3
:10C61000F0B50A46002300240021002500F0004662
:10C62000B6F1004F02D11D4EF16901E01B4E716859
:10C63000C0F3034583B200F44016B6F5401F08D19D
:10C6400021F07061154E766826F07066134F7E609B
:10C6500012E000F48016B6F5801F06D1032606FA14
:10C6600005F4A14341F0706106E0460D360103FA7E
:10C6700006F6B14341F0706122B1460D360103FA6E
:10C6800006F6314300F00046B6F1004F02D1034EEA
:10C69000F16101E0014E7160F0BD00000000014059
:10C6A0000246002093680B400BB1012000E00020FF
:10C6B00070474161704701617047000010B509A0E3
:10C6C0000AF0CAFA09A01BF029FC0D480D4A1268AD
:10C6D00000EBC2110CA01BF021FC0CA01BF01EFCF7
:10C6E00010BD00006563686F3A000000556E6B6E08
:10C6F0006F776E20636F6D6D616E643A202200006B
:10C700001CC200200C040020257300002200000041
:10C7100010B518F0DBFA21F04DFF10BD70477047DF
:10C7200010B517F06FFF012021F0DAFE10BD0000F8
:10C7300070B50024504800685049086050480068AF
:10C740005049086064204E4908604F4800684F49CE
:10C750000860012011F040F900BF07E04C4850F894
:10C7600024004C4941F82400601CC4B2042CF5DBC1
:10C77000002041490860484908780EF0C3FD58B9C7
:10C78000454948780EF0BEFD30B9434988780EF02F
:10C79000B9FD08B9012000E00020404908700846B2
:10C7A000007820B93C4908780EF0ACFD10B10020AB
:10C7B0001AF064FA3948007820B9374948780EF001
:10C7C000A1FD10B101201AF059FA3448007820B9BF
:10C7D000314988780EF096FD10B102201AF04EFA19
:10C7E0002D4908780EF08EFD60B10EF0C1FD48B104
:10C7F0000EF0A2FD05462A4801682846FDF7A0FD77
:10C8000023490860244948780EF07CFD60B10EF0A1
:10C81000AFFD48B10EF090FD05462148416828461D
:10C82000FDF78EFD1A4948601B4988780EF06AFDB5
:10C8300060B10EF09DFD48B10EF07EFD0546184832
:10C8400081682846FDF77CFD11498860104DEB6832
:10C85000AA68696828681FF027F808480068064930
:10C8600008600848006806490860074800680749EA
:10C87000086011F0B7F870BDF0030020F803002045
:10C88000B4030020B80300200C000020280400207E
:10C89000B8C1002000C200207B720308EC03002016
:10C8A000E8C1002010B517F0ADFE002021F018FE01
:10C8B00010BD000070B5002450200EF023FD28B1FB
:10C8C0000EF03AFD0546FDF7D0FF044653200EF06A
:10C8D00019FD48B10EF030FD06460E49FDF788FD02
:10C8E0000546FDF7C2FF044625F070FD0A480068C2
:10C8F0000444094800680949086005E01BF046FF48
:10C900001CF0D0F81AF048FE03480068A042F5D3A6
:10C9100070BD000000007A440C00002028040020B4
:10C9200010B500200249087002A00AF095F910BD68
:10C93000080400206162736F6C757465206D6F640C
:10C94000650D0A0010B501200249087002A00AF026
:10C9500083F910BD0804002072656C617469766506
:10C96000206D6F64650D0A0070B51849C8780EF027
:10C97000C9FC08B925F02AFD002424E01349085D0C
:10C980000EF0C0FCE8B1032C08D10EF0D5FC104924
:10C9900041F82400C8681EF04BFF12E00EF0CCFCFA
:10C9A00005460C4850F824102846FDF7C9FC0849F4
:10C9B00041F824000D46EB68AA68696828681EF0F3
:10C9C00073FF601CC4B2042CD8DB70BD7B720308FB
:10C9D000B8C10020E8C100207047000010B56820F1
:10C9E00024F0F4F853200EF08DFC38B10EF0A4FCC6
:10C9F000044604480178204624F0D0F824F05CF97D
:10CA000010BD00003C0400202DE9FC41692024F009
:10CA1000DDF8204800780FF01FF98046FDF771FF20
:10CA200004460D461B4800780FF006F98046FDF7D6
:10CA300068FF064632460B4617A0CDE900451BF0BD
:10CA40006DFA0FF001F98046FDF75BFF04460D46D5
:10CA50000FF0ECF88046FDF754FF064632460B46D1
:10CA600011A0CDE900451BF059FA0A48007817F0EB
:10CA7000F3FC0446214610A01BF050FA4FF0FF30A3
:10CA800017F0EAFC044621460DA01BF047FABDE86A
:10CA9000FC8100003C0400206F6B20543A252E31AD
:10CAA00066202F252E31660020423A252E31662041
:10CAB0002F252E316600000020403A25640000003A
:10CAC0002042403A25640A0070B553200EF01AFC4B
:10CAD000C8B10EF031FC05460021FDF771FF01D20F
:10CAE00000200AE00EF028FC05460949FDF772FF18
:10CAF00001D2074801E00EF01FFC0446FDF79CFE42
:10CB00000449086002E0FF200249086070BD00008F
:10CB100000007F43E80300200020014908607047BF
:10CB2000E80300202DE9FF5F6D2024F04FF808B1E5
:10CB3000BDE8FF9F00206E49087053200EF0E2FB15
:10CB400038B10EF0F9FB05466A480178284624F012
:10CB500025F853200EF0D6FB18B10EF0EDFB664918
:10CB6000086042200EF0CEFB18B10EF0E5FB6349E1
:10CB7000086046200EF0C6FB30B10EF0DDFB6049C8
:10CB8000086001205A49087024F096F85D48D0F8F2
:10CB900000A0584800781AF095FC81464FF0FF3409
:10CBA00090E0594890F85800022800D198E0554884
:10CBB0000068A0EB0A00B0F57A7F32D90FF036F8A2
:10CBC0008346FDF79EFE05460E464A4800780FF064
:10CBD00033F88346FDF795FE07464648CDE90256F1
:10CBE00000783A460B46009048A01BF097F94CA0FD
:10CBF0001BF094F9002C0EDB42480068001B42F247
:10CC00001071081A4FF47A71B0FBF1FA514645A041
:10CC10001BF084F902E045A01BF080F93948D0F8F8
:10CC200000A01BF0B3FD1BF03DFF1AF0B5FC601C2B
:10CC3000A8B9B9F1000F12D02E4800780FF00CF807
:10CC400080464FF07E51FDF7CDFB0646294800781F
:10CC50000EF0F2FF07463146FDF7BCFE30D9601CEE
:10CC6000A8B9B9F1000F12D1224800780EF0F4FFF4
:10CC700080464FF07E51FDF763FB06461D48007865
:10CC80000EF0DAFF07463146FDF79AFE18D9002C60
:10CC900018DB184800780EF0DFFF074615480078CB
:10CCA0000EF0CAFF80463946FDF79CFB0646FDF7AD
:10CCB000C3FD051E01DB284600E06842052801DDB2
:10CCC00010480468601C00283FF46BAF002C07DBA1
:10CCD0000C480068001B42F210718842FFF461AFFB
:10CCE00000BF084800681249086000BF20E7000044
:10CCF000A00400203C04002098040020940400209C
:10CD00009C0400200C0000205CC10020543A252E19
:10CD1000316620453A256420423A252E31662000AE
:10CD200020573A00256C640A000000003F0A00000A
:10CD300028040020F0B5A1B01548164A126800EB8F
:10CD4000C21101A8FDF7BBFA1149124A126801EBA2
:10CD5000C2104D21FDF794FA05464E212846FDF7F5
:10CD60008FFA054625B94E2101A8FDF789FA054637
:10CD70000021681C26F00EFA0646FDF78AFD0446DF
:10CD800005480460214605A009F066FF21B0F0BD0A
:10CD90001CC200200C0400200004002053657420F5
:10CDA00067636F6465206C696E65206E756D626582
:10CDB00072203D20256C640D0A0000002DE9F04F23
:10CDC00087B03149C868FDF79CFD04460D462E49E1
:10CDD0008868FDF796FD06460F462B494868FDF723
:10CDE00090FD8046894628490868FDF78AFD8246FD
:10CDF00052460B4625A0CDE90089CDE90267CDE971
:10CE000004451BF08BF826A01BF088F8022025F0C3
:10CE100095F90690FDF7E4FC83462448816858465E
:10CE2000FDF718FB8246FDF76CFD04460D46012018
:10CE300025F084F90690FDF7D3FC83461B48416832
:10CE40005846FDF707FB8246FDF75BFD06460F4699
:10CE5000002025F073F90690FDF7C2FC83461348C5
:10CE600001685846FDF7F6FA8246FDF74AFD80460E
:10CE700042460B460EA0CDE90067CDE902451BF006
:10CE80004DF807B0BDE8F08FB8C10020583A2566CC
:10CE900020593A2566205A3A256620453A256600EB
:10CEA00020436F756E7420583A2000005004002013
:10CEB000256620593A2566205A3A25660A00000060
:10CEC00010B502481BF02AF810BD00004895030871
:10CED00010B500242A2105480068401DFDF7D0F94F
:10CEE000044614B1002004F8010C10BD24040020F5
:10CEF00010B51DA01BF012F822A01BF00FF822A005
:10CF00001BF00CF822490968012901D121A100E098
:10CF100023A108461BF002F81AA01AF0FFFF22A076
:10CF20001AF0FCFF2249096881F0010109B119A139
:10CF300000E01BA108461AF0F1FF12A01AF0EEFF64
:10CF40001CA01AF0EBFF1A49091F096881F00101C2
:10CF500009B110A100E012A108461AF0DFFF09A0F4
:10CF60001AF0DCFF10BD00005265706F7274696EBC
:10CF70006720656E6473746F702073746174757369
:10CF8000000000000A000000785F6D696E3A200022
:10CF90001801224254524947474552454400000077
:10CFA0006F70656E00000000795F6D696E3A200059
:10CFB000200124427A5F6D696E3A200010B500208E
:10CFC00010F00AFD10BD10B5012010F005FD10BDD8
:10CFD000704770477047704710B553200EF092F9B4
:10CFE00020B10EF0A9F9044623F0C2FD10BD0000E7
:10CFF0001CB54FF6FF7001F05DF800230C221946B6
:10D00000052026F0EFFE68B907A00C21C8231A46B8
:10D01000CDE900105021052005F0C2FB4FF4FA7055
:10D020000BF076FC1CBD0000555044415445205384
:10D03000554343455353210010B54FF6FF7001F09F
:10D0400039F808F0A1FC02A01AF068FF10BD00003A
:10D0500041646A757374204F4B0D0A000020064925
:10D0600008600649C1F8B40105490860054908602F
:10D0700004490C3108607047A40124420000244296
:10D08000A08121428C01234270B553200EF03AF961
:10D0900058B10EF051F905462849FDF7A9F90446A3
:10D0A000FDF7E3FB2649086046E0264908780EF0C4
:10D0B00029F980B9234948780EF024F958B9214953
:10D0C00088780EF01FF930B91E49C8780EF01AF9A9
:10D0D00008B9012000E00020044654B125F076F99B
:10D0E0000120194908601949C1F8980115F0F4FDAB
:10D0F00021E025F06BF958200EF004F910B1012061
:10D100001349086059200EF0FDF818B101201049AC
:10D11000103108605A200EF0F5F810B101200D49C9
:10D12000086045200EF0EEF828B10120064908609D
:10D130000649C1F8980100BF70BD000000007A44A4
:10D14000300400207B7203088C012342000023423C
:10D15000A4012442A0812142704700002DE9FF472D
:10D1600053200EF0CFF820B10EF0E6F8054623F07C
:10D17000FFFC1E4804682EE01D4890F85800022865
:10D1800000D12CE019480068001BB0F57A7F1CD94B
:10D19000184800780EF050FD81460EF047FD82469B
:10D1A000FDF7AFFB05460E464846FDF7AAFB0746CE
:10D1B0001048CDE9025600783A460B4600900EA082
:10D1C0001AF0ACFE0948046800BF1BF0DFFA1BF040
:10D1D00069FC1AF0E1F91AF061F90028CCD100BF1E
:10D1E0000248006809490860BDE8FF870C0000207C
:10D1F0005CC10020E6030020543A252E316620450C
:10D200003A256420423A252E31660A00280400207F
:10D2100010B507A01AF082FE09A01AF07FFE0CF0EC
:10D220003BFD08A01AF07AFE05A01AF077FE10BDAB
:10D23000426567696E2066696C65206C697374006D
:10D240000A000000456E642066696C65206C697395
:10D250007400000070B500240EE00A49085D0EF06D
:10D2600051F838B10EF068F80546FDF7FEFA0649A8
:10D2700041F82400601CC4B2042CEEDB22F0E8FD6F
:10D2800070BD00007B72030860040020704700003E
:10D2900010B500240BE00749085D0EF033F820B10B
:10D2A0000EF04AF8044941F82400601CC4B2042C72
:10D2B000F1DB10BD7B7203084004002010B5532041
:10D2C0000EF020F818B10EF037F805490860542028
:10D2D0000EF018F818B10EF02FF80249086010BDD2
:10D2E000780400207C04002010B553200EF00AF8CA
:10D2F00018B10EF021F81749086054200EF002F81A
:10D3000018B10EF019F81449086042200DF0FAFF28
:10D3100030B10EF011F80446FDF7A7FA0F49086086
:10D3200058200DF0EFFF18B10EF006F80C49086018
:10D330005A200DF0E7FF18B10DF0FEFF0949086013
:10D3400045200DF0DFFF18B10DF0F6FF064908602B
:10D3500010BD0000740400208C0400207004002024
:10D3600080040020840400208804002010B50024DC
:10D370000BE00749085D0DF0C5FF20B10DF0DCFFA3
:10D38000044941F82400601CC4B2032CF1DB10BD39
:10D390007B720308E8C1002070477047704710B5E2
:10D3A0000CF050FC10BD704710B50CF049FD10BDDD
:10D3B00010B553200DF0A6FF30B10DF0BDFF0446AF
:10D3C000FDF73AFA0149086010BD0000B4030020DF
:10D3D00010B553200DF096FF30B10DF0ADFF0446AF
:10D3E000FDF72AFA0149086010BD0000BC030020C7
:10D3F00010B500240E4801680EA01AF08FFD2A21F6
:10D400000B480068001DFCF73BFF044614B10020E8
:10D4100004F8010C06480168091D06A01AF07EFDFB
:10D42000012103480068001D0CF04AFC10BD0000FB
:10D43000240400202D2D25730A00000010B50CF0E7
:10D4400045FD024800680249086010BD0C0000203C
:10D4500034040020704710B50CF0CCFC10BD000067
:10D4600010B50648807840B153200DF04BFF20B135
:10D470000DF07EFF04460CF01FFD10BD5CB10020D6
:10D4800010B50CF0A9FB10BD70B500242A2111487D
:10D490000068001DFCF7F4FE04469CB10E490F4ADB
:10D4A000126801EBC2104E21FCF7EAFE054620216E
:10D4B0002846FCF7E5FE401C06490860002004F8F9
:10D4C000010C00BF002103480068001D0CF0F8FBB0
:10D4D00070BD0000240400201CC200200C040020A9
:10D4E0007047704770B500241348807810B30CF073
:10D4F00053FB2A2111480068001DFCF7C1FE0446B9
:10D500009CB10F490F4A126801EBC2104E21FCF783
:10D51000B7FE054620212846FCF7B2FE401C07490D
:10D520000860002004F8010C00BF04480068001DDA
:10D530000CF08EFC70BD00005CB1002024040020C3
:10D540001CC200200C04002070B54FF47A745020E7
:10D550000DF0D8FE28B10DF0EFFE0546FDF76CF991
:10D56000044601200449086020460BF0D1F9002050
:10D570000249C1F88C0170BD8C0122420000224298
:10D580002DE9FF4750200DF0BDFE18B10DF0D4FE7F
:10D590002049086049200DF0B5FE30B10DF0CCFEF9
:10D5A000044622F089FC1C49086044200DF0AAFEC4
:10D5B00030B10DF0C1FE044622F06AFC1749086044
:10D5C00026F0D2FB16A01AF0A9FC1448006826F039
:10D5D00091FA8246FDF795F904460D460E4800681B
:10D5E00026F09CFA8246FDF78CF906460F4609485C
:10D5F0000068FDF786F9804642460B4609A0CDE952
:10D600000067CDE902451AF089FC0AA01AF086FCF1
:10D61000BDE8FF87380300203C03002040030020C2
:10D620006F6B000020703A256620693A25662064F9
:10D630003A2566000A00000010B501200AF07CFCC3
:10D6400010BD00002DE9F041134D002405264520B2
:10D650000DF058FE28B10DF06FFE0746FDF7ECF80F
:10D660000446002C00DA0D4D53200DF04BFE10B196
:10D670000DF062FE054643200DF044FE28B10DF08A
:10D680005BFE0746FDF7D8F8064632462146284697
:10D6900005F0DEFCBDE8F0810000164300008C427E
:10D6A0007047000070B50F4800680F490968401ABC
:10D6B0004FF47A71B0FBF1F40C4800680949086036
:10D6C0003C20B4FBF0F6B4FBF0F100FB11452A4618
:10D6D000314607A01AF022FC09A009F0BDFA0BF0B0
:10D6E0007DF870BD38040020340400200C000020B8
:10D6F0002564206D696E2C2025642073656300000D
:10D700006563686F3A00000070B553200DF0FAFDB4
:10D7100078B100240BE00DF00FFE0646FDF7A5F8EA
:10D72000C5B2294620461BF077FC601CC4B2042C0D
:10D73000F1DD002410E01249085D0DF0E3FD48B171
:10D740000DF0FAFD0646FDF790F8C5B229462046D1
:10D750001BF062FC601CC4B2042CECDB42200DF018
:10D76000D1FD48B10DF0E8FD0646FDF77EF8C5B2E3
:10D77000294604201BF050FC1BF0C4FC70BD0000C7
:10D780007B72030870B553200DF0BCFD00287CD0DF
:10D790000DF0D2FD0546FDF74FF8012804D0022810
:10D7A0002CD0032829D153E0002413E04049085D20
:10D7B0000DF0A8FD60B10DF0BFFD0646FDF73CF889
:10D7C00045B24FF0FF331A46294620461BF098FC1D
:10D7D000601CC4B2042CE9DB42200DF093FD60B163
:10D7E0000DF0AAFD0646FDF727F845B24FF0FF33CE
:10D7F0001A46294604201BF083FC55E0002413E060
:10D800002B49085D0DF07EFD60B10DF095FD0646DB
:10D81000FDF712F845B24FF0FF332A46194620466D
:10D820001BF06EFC601CC4B2042CE9DB42200DF03E
:10D8300069FD60B10DF080FD0646FCF7FDFF45B2C5
:10D840004FF0FF332A46194604201BF059FC2BE009
:10D85000002413E01649085D0DF054FD60B10DF091
:10D860006BFD0646FCF7E8FF45B22B464FF0FF3252
:10D87000114620461BF044FC601CC4B2042CE9DBBA
:10D8800042200DF03FFD70B100E00EE00DF054FDC0
:10D890000646FCF7D1FF45B22B464FF0FF3211464A
:10D8A00004201BF02DFC00BF00BF1BF02BFC70BD43
:10D8B0007B72030810B524F089FD10BD70477047D6
:10D8C0007047704710B5FEF7C9F810BD7047704734
:10D8D0007047704700200149C8707047B0030020AE
:10D8E00001200149C8707047B003002070B5532073
:10D8F0000DF008FD0DF020FD05460449FCF778FD0C
:10D900000446FCF7B2FF0249086070BD00007A448B
:10D910002C04002070B5002410E01B49085D0DF0B8
:10D92000F1FC48B10DF008FD0646FCF79EFFC5B2BC
:10D93000294620460EF09AF9601CC4B2042CECDB98
:10D9400042200DF0DFFC48B10DF0F6FC0646FCF776
:10D950008CFFC5B2294604200EF088F953200DF043
:10D96000D1FC78B100240BE00DF0E6FC0646FCF794
:10D970007CFFC5B2294620460EF078F9601CC4B27F
:10D98000042CF1DD70BD00007B72030870B55020DF
:10D990000DF0B8FC28B10DF0CFFC0646FCF765FF92
:10D9A000C4B253200DF0AEFC28B10DF0C5FC064604
:10D9B000FCF75BFFC5B2294620460EF057F970BD53
:10D9C0002DE9F041002445E02449085D0DF09AFC62
:10D9D00000283DD0032C36D10DF0AEFC054628467C
:10D9E000FCF78FFF064600221D4BFCF79DFF26D259
:10D9F0001C4951F824002946FCF72CFD07463946FE
:10DA000019480068FCF7F4FC17490860174951F8F9
:10DA100024003946FCF7ECFC144941F82400144971
:10DA200051F82400FCF7E5FE80463946FCF7E0FC9F
:10DA30000646FCF71AFF0E4941F8240000BF0948CA
:10DA400040F8245004E00DF077FC064941F824002A
:10DA5000601CC4B2042CB7DBBDE8F0817B72030804
:10DA600000003440500400208804002040040020BE
:10DA700028C7002010B50020044908700448006839
:10DA800004490860FEF7FEFC10BD00003D040020C4
:10DA9000040400200004002038B50DF04DFC0446BD
:10DAA000FCF7E3FE1D4908700846007801280BDBEF
:10DAB0001BA009F0D1F8194801781BA01AF02EFA22
:10DAC0001AA01AF02BFA28E00020009046200DF052
:10DAD00019FC98B1012000900DF02EFC1849086047
:10DAE00008460068FCF70DFF044600221346FCF7C9
:10DAF00033FF03D2124800681249086008A009F0F9
:10DB0000ABF811A01AF00AFA1448017814A01AF020
:10DB100005FA14A01AF002FA00BF38BD3C04002038
:10DB20006563686F3A00000054256400496E7661B1
:10DB30006C69642065787472756465720000000019
:10DB4000F4030020F00300204163746976652045EA
:10DB5000787472756465723A20000000E603002054
:10DB6000256400000A00000010B5044607230122C6
:10DB700021460948FDF7E8FB01210748FDF745FC70
:10DB800000BF02210448FDF7A3FB0028F9D002489A
:10DB9000FDF79AFB10BD0000003C01402DE9F05F4D
:10DBA00082460F4614462046E21704EB5272D2100A
:10DBB0002146E31704EB5373DB10A4EBC3030BB153
:10DBC000012300E000231A44624302F0FF099AF89F
:10DBD00000600AF1010082460578812E05DB402DA8
:10DBE00003DBFF2D01D0FF2E0DD14FF0000B06E01F
:10DBF000002007F8010B0BF1010000F0FF0BCB45F3
:10DC0000F6DBBDE8F09F7F2D03DAA5F14000C5B239
:10DC100002E0A5F14100C5B2A6F18100C6B2BE2066
:10DC200000FB065000FB09F80C2C04D0102C0CD083
:10DC3000182C1ED113E01048D0F8090000EB0801A1
:10DC40004A46384608F0D6FE13E00B48D0F81100DB
:10DC500000EB08014A46384608F0CCFE09E00648C9
:10DC6000D0F8190000EB08014A46384608F0C2FE19
:10DC700000BF00BF00BFC4E720B00020014800780B
:10DC8000704700003D04002002E002A008F0E4FF1D
:10DC9000FBE7000048617264204661756C740D0AF0
:10DCA0000000000010B500200F4908600F48006810
:10DCB00020F470400D4908600846006840F4405068
:10DCC000086000200A49C1F8AC0102200AF040FEB9
:10DCD00001200549086002200AF03AFE00200449AC
:10DCE000C1F8A80110BD0000A8812142040C014028
:10DCF0000080214208B50121082005F091FC4FF475
:10DD00004060ADF8000010208DF8030003208DF86E
:10DD1000020069460448FEF7EFFB4FF440610248F9
:10DD2000FEF7C9FC08BD0000000C014010B5002042
:10DD30000F4908600F48006820F470400D490860E2
:10DD40000846006840F44050086001200A49C1F8C4
:10DD5000AC0102200AF0FCFD012005490860022008
:10DD60000AF0F6FD00200449C1F8A80110BD00002A
:10DD7000A8812142040C01400080214270B5054673
:10DD800000241748006820F47040154908600846D0
:10DD9000006840F400400860002616E000201149A9
:10DDA000086002200AF0D4FD01200F49C1F8A80143
:10DDB0006006040E0B487C38006808B1601CC4B2D1
:10DDC00001200AF0C5FD701CC6B2082EE6DB15B9AD
:10DDD000FFF7ACFF01E0FFF765FF204670BD0000D4
:10DDE000040C0140A88121420080214270B5044604
:10DDF0001548006820F47040134908600846006820
:10DE000040F440500860002010490860002517E0E9
:10DE1000E0090E49091D08606006040E02200AF0A0
:10DE200097FD01200A49C1F8A80102200AF090FDDF
:10DE300000200649086002200AF08AFD681CC5B26D
:10DE4000082DE5DB70BD0000040C0140A8812142D3
:10DE50000080214210B50F48006820F470400D4941
:10DE600008600846006840F44050086001200A49F4
:10DE700008600A49C1F8A80104200AF069FD0020E1
:10DE80000549086004200AF063FD00200349C1F839
:10DE9000A80110BD040C0140AC8121420080214248
:10DEA00010B50F48006820F470400D49086008461E
:10DEB000006840F44050086000200A4908600A49A0
:10DEC000C1F8AC0104200AF043FD012005490860B7
:10DED0000549C1F8AC0104200AF03AFD10BD00006C
:10DEE000040C0140A88121420080214210B5002489
:10DEF0001448006820F47040124908600846006821
:10DF000040F40040086001200F4908600AF020FD3D
:10DF100001200E49C1F8A8010AF01AFD07E0601CB3
:10DF2000C4B2FA2C03DDFFF7BBFF012010BD064889
:10DF3000803800680028F2D10349091F086000BF3B
:10DF4000F4E70000040C0140AC8121420080214232
:10DF500072B6704762B670474CF6CC400149086013
:10DF6000704700000030004070B505460C4645F291
:10DF7000555000F01FF8284600F010F8204600F039
:10DF800013F800F003F8FFF7E7FF70BD4AF6AA2088
:10DF900001490860704700000030004001494860B6
:10DFA0007047000000300040014988607047000061
:10DFB0000030004001490860704700000030004018
:10DFC0000448806800F0400008B901207047002034
:10DFD000FCE70000001001400448806800F48070F5
:10DFE00008B9012070470020FCE700000020014034
:10DFF0000448806800F0800008B9012070470020C4
:10E00000FCE70000002001400448006800F04000E8
:10E0100008B9012070470020FCE70000080C01400F
:10E020000448806800F0400008B9012070470020D3
:10E03000FCE70000001001400448006800F0020006
:10E0400008B9012070470020FCE70000080C0140DF
:10E050000448806800F0800008B900207047012063
:10E06000FCE70000001001400448006800F48060F4
:10E0700008B9012070470020FCE70000081C01409F
:10E0800001480078704700003D04002001480078F6
:10E09000704700003416002030B5014601F01F041F
:10E0A000C1F34513CA0AE50205EB43151544A8B2AE
:10E0B00030BD000070B5044600261748058840882A
:10E0C00045431548808846F60401884216D1124817
:10E0D0008079012812D100200F4988712A204881B7
:10E0E0002B2088810021084604F0A8F901200A4964
:10E0F00088712B2048812A20888103E0002108466E
:10E1000004F09CF904F026FC002602E00348048099
:10E11000761CAE42FAD370BD2416002000080060C1
:10E120002DE9F04F05460E4617469846DDF824A027
:10E130004FF0000B781B401C1FFA80FB344613E0A5
:10E140002146284604F07AF904F004FC4FF0000957
:10E1500006E0504604F0F2FB09F101001FFA80F9D5
:10E16000D945F6DB601C84B24445E9DDBDE8F08F9B
:10E1700038B504460094164805884088454314483D
:10E18000808846F60401884216D11148807901281A
:10E1900012D100200E4988712A2048812B208881C5
:10E1A0000021084604F04AF90120094988712B2012
:10E1B00048812A20888103E00021084604F03EF9C6
:10E1C0002B466A460021084614F084FB38BD000047
:10E1D000241600202DE9F84F07460D469046994633
:10E1E000DDF828B0A8EB0700401C1FFA80FAA9EB65
:10E1F0000500401C80B20090002414E0281981B270
:10E20000384604F01BF904F0A5FB002607E004FBE8
:10E210000A603BF8100006490880701C86B256451B
:10E22000F5DB601C84B200988442E7DBBDE8F88F20
:10E230000008006010B50446002C68D16E490870D3
:10E240006E498871F02008804FF4A070488008461D
:10E25000808849F2413188420BD06848808846F670
:10E260000401884205D06548808845F21031884213
:10E270001AD12C20614908812A2048812B208881CD
:10E280000846808846F60401884205D05B488088AD
:10E2900045F21031884206D14FF4A07057490880EA
:10E2A0004FF4F0704880A3E05448808845F2105144
:10E2B000884210D14FF43050504908814FF4285013
:10E2C00048814FF42C5088814FF4F07008804FF44F
:10E2D000487048808CE04948808841F66311884244
:10E2E0000DD12C20454908812B2048812A20888186
:10E2F0004FF4F07008804FF44870488078E0222096
:10E300003E490881202048812120888170E0012039
:10E3100039490870394988714FF4A0700880F0209D
:10E3200048800846808849F24131884205D0334808
:10E33000808845F21031884207D12C202F4908816E
:10E340002A2048812B2088813FE02C48808846F68F
:10E350000401884207D12C20284908812B204881BC
:10E360002A20888131E02548808845F21051884272
:10E3700010D14FF43050214908814FF42850488182
:10E380004FF42C5088814FF4487008804FF4F0709F
:10E3900048801AE01948808841F6631188420DD1FF
:10E3A0002C20164908812A2048812B2088814FF48F
:10E3B000487008804FF4F070488006E022200F4932
:10E3C000088121204881202088810C48808846F6D9
:10E3D0000401884205D00948808845F210318842FE
:10E3E00006D14FF4F070054908804FF4A0704880C2
:10E3F000002003F0ADFE10BD7E000020241600209A
:10E400002DE9FF4F84B081468A4600200390029098
:10E410000698A0EB09050798A0EB0A06CDF8049032
:10E42000CDF800A0002D01DD012705E00DB9002782
:10E4300002E04FF0FF376D42002E02DD4FF0010881
:10E4400006E016B94FF0000802E04FF0FF387642C0
:10E45000B54201DD2C4600E034464FF0000B21E0D0
:10E46000009A91B2019A90B200F022F803982844E1
:10E4700003900298304402900398A04205DD03986F
:10E48000001B03900198384401900298A04205DDDA
:10E490000298001B02900098404400900BF101008C
:10E4A0001FFA80FB601C8345DADD08B0BDE8F08F01
:10E4B00030B504460D462946204603F0BFFF04F060
:10E4C00049FA024800880249088030BD80000020D7
:10E4D000000800602DE9F04306460F4690460024F0
:10E4E00045460320A0EB48093CE07A1B91B2321963
:10E4F00090B2FFF7DDFF3A1B91B2721990B2FFF7AD
:10E50000D7FF3A1991B2721990B2FFF7D1FF7A1979
:10E5100091B2321990B2FFF7CBFF7A1991B2321B48
:10E5200090B2FFF7C5FF3A1991B2721B90B2FFF794
:10E53000BFFF7A1B91B2321B90B2FFF7B9FF3A1BB3
:10E5400091B2721B90B2FFF7B3FF641CB9F1000FD8
:10E5500003DAA000801D814404E0601B80000A30C3
:10E5600081446D1EAC42C0DDBDE8F08330B503468A
:10E570000C4615465A48808849F24131884205D0F8
:10E580005748808845F21031884214D1544948894F
:10E5900004F0DAF9181204F0D1F9D8B204F0CEF987
:10E5A0004F49888904F0D0F9201204F0C7F9E0B28D
:10E5B00004F0C4F98CE04A48808845F21051884242
:10E5C00020D14749488904F0BFF9181204F0B6F980
:10E5D00043494989491C88B204F0B6F9D8B204F01D
:10E5E000ADF93F49888904F0AFF9201204F0A6F98B
:10E5F0003B498989491C88B204F0A6F9E0B204F0CD
:10E600009DF965E03648808841F66311884228D13B
:10E610003348807920B932480088401EC01A83B23E
:10E620002F49488904F090F9181204F087F9D8B2FC
:10E6300004F084F9181204F081F9D8B204F07EF9DC
:10E640002749888904F080F9201204F077F9E0B2B4
:10E6500004F074F9201204F071F9E0B204F06EF9DC
:10E6600036E01F48808846F6040188421DD11C48C8
:10E670008079012804D11A480088401EC01A83B24C
:10E680001749488904F060F9181204F057F9D8B214
:10E6900004F054F91249888904F056F9201204F064
:10E6A0004DF9E0B204F04AF912E00D4880790128F2
:10E6B00004D10B480088401EC01A83B2084948891B
:10E6C000194604F051F906498889214604F04CF9AD
:10E6D0000348008903490880881C058030BD00007C
:10E6E00024160020FE0700602DE9FC4F05460E466B
:10E6F00017469846DDF82C90002001902748808826
:10E7000046F60401884229D124488079012825D180
:10E71000AB46354621480088C01B401E86B247469E
:10E720001E480088A0EB0B00401E1FFA80F8002056
:10E730001A4988712A2048812B20888143463A460D
:10E7400031462846CDF80090FFF7CEFF012013494F
:10E7500088712B2048812A2088811CE0781B401C6E
:10E7600080B20190344614E02146284603F066FE4C
:10E7700004F0F0F84FF0000A06E00948A0F8009015
:10E780000AF101001FFA80FA01988245F5DB601C4E
:10E7900084B24445E8DDBDE8FC8F0000241600206B
:10E7A000000800602DE9F84380460C4616461F46D7
:10E7B000DDF82090CDF80090254607E033466A4604
:10E7C0002946404614F086F8681C85B23819A842DC
:10E7D000F4DABDE8F883000000B59FB0012108021B
:10E7E00004F0EEFE012140F2E91004F019FF4FF4AD
:10E7F0000060ADF8780010208DF87B0003208DF8C4
:10E800007A001EA9FE48FDF777FE4CF2B370ADF812
:10E81000780018208DF87B0003208DF87A001EA95F
:10E82000F848FDF769FE4FF68070ADF878001820C3
:10E830008DF87B0003208DF87A001EA9F248FDF7C1
:10E840005BFE0120ADF8780018208DF87B000320D6
:10E850008DF87A001EA9ED48FDF74EFE15200890B0
:10E860000020099015200A9000200B9001200C90A8
:10E8700000200D900E901520019002900390002032
:10E880000490012005900020069007900F901090B2
:10E890001190102012900020139015901490169053
:10E8A00017904FF480501890002019904FF480403A
:10E8B0001A9000201B9008A81C9001A81D900FA87A
:10E8C000FDF7A2FC01210020FDF784FC32200AF0B4
:10E8D0001FF8002003F006FCCD4988800846808898
:10E8E000FF280ADB084680884FF6FF71884204D073
:10E8F000C7488088B0F5134F7ED1D32004F024F8A8
:10E9000003F030FBC249888003F02CFBC0498880AB
:10E9100003F028FBBE498880084680884FF6FF71C7
:10E9200001EA0020BA49888003F01CFBB8498988B5
:10E930000843B74988800846808849F241318842B7
:10E940005AD0BF2004F000F803F00CFBB0498880D7
:10E9500003F008FBAE49888003F004FBAC498880D3
:10E9600003F000FBAA498880084680884FF6FF71B3
:10E9700001EA0020A649888003F0F4FAA4498988B6
:10E980000843A34988800846808846F604018842E7
:10E990007AD0D42003F0D8FF03F0E4FA9C498880B1
:10E9A00003F0E0FA9A49888003F0DCFA98498880FD
:10E9B000084680884FF6FF7101EA0020944988805C
:10E9C00003F0D0FA92498988084391498880084623
:10E9D000808845F21031884256D04FF45A4003F0F7
:10E9E000B3FF03F0BFFA8A4988804FF45B4003F01D
:10E9F000ABFF03F0B7FA00E046E08549888008469F
:10EA000080884FF6FF7101EA0020814988804FF429
:10EA10005C4003F099FF03F0A5FA7D49898808431B
:10EA20007B49888008468088B0F5004F02D145F2C6
:10EA3000105088807648808845F21051884223D053
:10EA4000A12003F081FF03F08DFA7149888003F063
:10EA500089FA6F498880084680884FF6FF7101EA7D
:10EA600000206B49888003F07DFA69498988084352
:10EA7000674988800846808845F26171884203D1E1
:10EA800041F66310624988806148818861A008F07E
:10EA9000E3F85F48808849F2413188427ED1CF2037
:10EAA00003F052FF002003F049FFC12003F046FFAE
:10EAB000302003F043FFED2003F046FF642003F015
:10EAC0003DFF032003F03AFF122003F037FF8120BF
:10EAD00003F034FFE82003F037FF852003F02EFF1A
:10EAE000102003F02BFF7A2003F028FFCB2003F047
:10EAF0002BFF392003F022FF2C2003F01FFF002002
:10EB000003F01CFF342003F019FF022003F016FF6E
:10EB1000F72003F019FF202003F010FFEA2003F094
:10EB200013FF002003F00AFF002003F007FFC020BE
:10EB300003F00AFF1B2003F001FFC12003F004FFD4
:10EB4000012003F0FBFEC52003F0FEFE302003F0A1
:10EB5000F5FE302003F0F2FEC72003F0F5FEB720EB
:10EB600003F0ECFE362003F0EFFE482003F0E6FE53
:10EB70003A2003F0E9FE552003F0E0FEB12003F057
:10EB8000E3FE002003F0DAFE1A2003F0D7FEB620E1
:10EB900003F0DAFE0A2003F0D1FE00E0AAE0A22092
:10EBA00003F0CCFEF22003F0CFFE002003F0C6FEFF
:10EBB000262003F0C9FE012003F0C0FEE02003F090
:10EBC000C3FE0F2003F0BAFE2A2003F0B7FE282070
:10EBD00003F0B4FE082003F0B1FE0E2003F0AEFEF9
:10EBE000082003F0ABFE542003F0A8FEA92003F098
:10EBF000A5FE432003F0A2FE0A2003F09FFE11E0D1
:10EC0000001C014000140140001801400020014098
:10EC100024160020204C43442049443A25780D0A0C
:10EC2000000000000F2003F089FE002003F086FEA4
:10EC3000002003F083FE002003F080FE002003F09C
:10EC40007DFEE12003F080FE002003F077FE15201A
:10EC500003F074FE172003F071FE072003F06EFE30
:10EC6000112003F06BFE062003F068FE2B2003F05A
:10EC700065FE562003F062FE3C2003F05FFE052097
:10EC800003F05CFE102003F059FE0F2003F056FE47
:10EC90003F2003F053FE3F2003F050FE0F2003F00F
:10ECA0004DFE2B2003F050FE002003F047FE002015
:10ECB00003F044FE012003F041FE3F2003F03EFE3E
:10ECC0002A2003F041FE002003F038FE002003F06C
:10ECD00035FE002003F032FEEF2003F02FFE11205E
:10ECE00003F032FE782009F013FE292003F02CFEF9
:10ECF00003F01DB9FE48808846F6040188427CD1A5
:10ED0000112003F021FE142009F002FED02003F0B0
:10ED10001BFE072003F012FE422003F00FFE1D2011
:10ED200003F00CFED12003F00FFE002003F006FEDE
:10ED30001A2003F003FE092003F000FED22003F0A6
:10ED400003FE012003F0FAFD222003F0F7FDC020AE
:10ED500003F0FAFD102003F0F1FD3B2003F0EEFD7F
:10ED6000002003F0EBFD022003F0E8FD112003F08A
:10ED7000E5FDC52003F0E8FD032003F0DFFDC8201A
:10ED800003F0E2FD002003F0D9FD252003F0D6FDBD
:10ED9000212003F0D3FD052003F0D0FD002003F077
:10EDA000CDFD0A2003F0CAFD652003F0C7FD252034
:10EDB00003F0C4FD772003F0C1FD502003F0BEFD39
:10EDC0000F2003F0BBFD002003F0B8FDF82003F096
:10EDD000BBFD012003F0B2FDFE2003F0B5FD0020D5
:10EDE00003F0ACFD022003F0A9FD202003F0ACFDF0
:10EDF000362003F0A9FD082000E02CE003F09EFD82
:10EE00003A2003F0A1FD552003F098FD2B2003F0DC
:10EE10009BFD002003F092FD002003F08FFD0120F8
:10EE200003F08CFD3F2003F089FD2A2003F08CFDC8
:10EE3000002003F083FD002003F080FD012003F09B
:10EE40007DFDDF2003F07AFD782009F061FD2920A7
:10EE500003F07AFD4CE7A648808845F210318842DD
:10EE600040F07C87ED2003F06FFD012003F066FD8C
:10EE7000FE2003F063FDEE2003F066FDDE2003F0CC
:10EE80005DFD212003F05AFDF12003F05DFD01201E
:10EE900003F054FDDF2003F057FD102003F04EFD7A
:10EEA000C42003F051FD8F2003F048FDC62003F07D
:10EEB0004BFD002003F042FDE22003F03FFDE22085
:10EEC00003F03CFDE22003F039FDBF2003F03CFDE0
:10EED000AA2003F033FDB02003F036FD0D2003F02F
:10EEE0002DFD002003F02AFD0D2003F027FD00205A
:10EEF00003F024FD112003F021FD002003F01EFD8E
:10EF0000192003F01BFD002003F018FD212003F061
:10EF100015FD002003F012FD2D2003F00FFD002051
:10EF200003F00CFD3D2003F009FD002003F006FD79
:10EF30005D2003F003FD002003F000FD5D2003F0E1
:10EF4000FDFC002003F0FAFCB12003F0FDFC802062
:10EF500003F0F4FC002003F0F1FC8B2003F0EEFC46
:10EF6000002003F0EBFC962003F0E8FC002003F007
:10EF7000E5FCB22003F0E8FC002003F0DFFC0020F9
:10EF800003F0DCFC022003F0D9FC002003F0D6FCE7
:10EF9000032003F0D3FC002003F0D0FCB32003F0E7
:10EFA000D3FC002003F0CAFC002003F0C7FC0020C3
:10EFB00003F0C4FC002003F0C1FC002003F0BEFC01
:10EFC000002003F0BBFC002003F0B8FC002003F09D
:10EFD000B5FC002003F0B2FC002003F0AFFC0020E1
:10EFE00003F0ACFC002003F0A9FC002003F0A6FC19
:10EFF000002003F0A3FC002003F0A0FC002003F09D
:10F000009DFC002003F09AFC002003F097FC0020F8
:10F0100003F094FC002003F091FC002003F08EFC30
:10F02000002003F08BFC002003F088FC002003F09C
:10F0300085FCB42003F088FC8B2003F07FFC0020CB
:10F0400003F07CFC962003F079FC002003F076FCB2
:10F05000A12003F073FC002003F070FCB52003F046
:10F0600073FC022003F06AFC002003F067FC03201D
:10F0700003F064FC002003F061FC042003F05EFC5C
:10F08000002003F05BFCB62003F05EFC002003F0E0
:10F0900055FC002003F052FCB72003F055FC002083
:10F0A00003F04CFC002003F049FC3F2003F046FC39
:10F0B000002003F043FC5E2003F040FC002003F03E
:10F0C0003DFC642003F03AFC002003F037FC8C2068
:10F0D00003F034FC002003F031FCAC2003F02EFCE4
:10F0E000002003F02BFCDC2003F028FC002001E0D2
:10F0F0002416002003F022FC702003F01FFC0020E7
:10F1000003F01CFC902003F019FC002003F016FC17
:10F11000EB2003F013FC002003F010FCDC2003F0D4
:10F120000DFC002003F00AFCB82003F00DFC0020C9
:10F1300003F004FC002003F001FC002003F0FEFBC0
:10F14000002003F0FBFB002003F0F8FB002003F09D
:10F15000F5FB002003F0F2FB002003F0EFFBBA20E8
:10F1600003F0F2FB242003F0E9FB002003F0E6FBB0
:10F17000002003F0E3FB002003F0E0FBC12003F0DC
:10F18000E3FB202003F0DAFB002003F0D7FB542040
:10F1900003F0D4FB002003F0D1FBFF2003F0CEFBF3
:10F1A000002003F0CBFBC22003F0CEFB0A2003F0CB
:10F1B000C5FB002003F0C2FB042003F0BFFB0020CE
:10F1C00003F0BCFBC32003F0BFFB3C2003F0B6FB05
:10F1D000002003F0B3FB3A2003F0B0FB002003F063
:10F1E000ADFB392003F0AAFB002003F0A7FB37207A
:10F1F00003F0A4FB002003F0A1FB3C2003F09EFBE6
:10F20000002003F09BFB362003F098FB002003F066
:10F2100095FB322003F092FB002003F08FFB2F20A0
:10F2200003F08CFB002003F089FB2C2003F086FB0D
:10F23000002003F083FB292003F080FB002003F073
:10F240007DFB262003F07AFB002003F077FB2420CF
:10F2500003F074FB002003F071FB242003F06EFB2D
:10F26000002003F06BFB232003F068FB002003F079
:10F2700065FB3C2003F062FB002003F05FFB3620BF
:10F2800003F05CFB002003F059FB322003F056FB37
:10F29000002003F053FB2F2003F050FB002003F06D
:10F2A0004DFB2C2003F04AFB002003F047FB2920F4
:10F2B00003F044FB002003F041FB262003F03EFB5B
:10F2C000002003F03BFB242003F038FB002003F078
:10F2D00035FB242003F032FB002003F02FFB23201A
:10F2E00003F02CFB002003F029FBC42003F02CFBCF
:10F2F000622003F023FB002003F020FB052003F035
:10F300001DFB002003F01AFB842003F017FB0020F4
:10F3100003F014FBF02003F011FB002003F00EFBC0
:10F32000182003F00BFB002003F008FBA42003F0DF
:10F3300005FB002003F002FB182003F0FFFA002079
:10F3400003F0FCFA502003F0F9FA002003F0F6FA7B
:10F350000C2003F0F3FA002003F0F0FA172003F07A
:10F36000EDFA002003F0EAFA952003F0E7FA002016
:10F3700003F0E4FAF32003F0E1FA002003F0DEFAF0
:10F38000E62003F0DBFA002003F0D8FAC52003F0F2
:10F39000DBFA322003F0D2FA002003F0CFFA442047
:10F3A00003F0CCFA002003F0C9FA652003F0C6FA96
:10F3B000002003F0C3FA762003F0C0FA002003F027
:10F3C000BDFA882003F0BAFA002003F0B7FAC6208D
:10F3D00003F0BAFA202003F0B1FA002003F0AEFAED
:10F3E000172003F0ABFA002003F0A8FA012003F085
:10F3F000A5FA002003F0A2FAC72003F0A5FA002026
:10F4000003F09CFA002003F099FA002003F096FA2A
:10F41000002003F093FAC82003F096FA002003F0CE
:10F420008DFA002003F08AFA002003F087FA00200A
:10F4300003F084FAC92003F087FA002003F07EFA73
:10F44000002003F07BFA002003F078FA002003F09C
:10F4500075FA002003F072FA002003F06FFA002022
:10F4600003F06CFA002003F069FA002003F066FA5A
:10F47000002003F063FA002003F060FA002003F09C
:10F480005DFA002003F05AFA002003F057FA00203A
:10F4900003F054FA002003F051FAE02003F054FA8C
:10F4A000162003F04BFA002003F048FA1C2003F06A
:10F4B00045FA002003F042FA212003F03FFA002031
:10F4C00003F03CFA362003F039FA002003F036FA54
:10F4D000462003F033FA002003F030FA522003F004
:10F4E0002DFA002003F02AFA642003F027FA002006
:10F4F00003F024FA7A2003F021FA002003F01EFA28
:10F500008B2003F01BFA002003F018FA992003F077
:10F5100015FA002003F012FAA82003F00FFA0020D9
:10F5200003F00CFAB92003F009FA002003F006FA00
:10F53000C42003F003FA002003F000FACA2003F00D
:10F54000FDF9002003F0FAF9D22003F0F7F90020CA
:10F5500003F0F4F9D92003F0F1F9002003F0EEF9FB
:10F56000E02003F0EBF9002003F0E8F9F32003F0CA
:10F57000E5F9002003F0E2F9E12003F0E5F91620B7
:10F5800003F0DCF9002003F0D9F91C2003F0D6F9D0
:10F59000002003F0D3F9222003F0D0F9002003F07B
:10F5A000CDF9362003F0CAF9002003F0C7F9452051
:10F5B00003F0C4F9002003F0C1F9522003F0BEF9B2
:10F5C000002003F0BBF9642003F0B8F9002003F039
:10F5D000B5F97A2003F0B2F9002003F0AFF98B20DF
:10F5E00003F0ACF9002003F0A9F9992003F0A6F983
:10F5F000002003F0A3F9A82003F0A0F9002003F0F5
:10F600009DF9B92003F09AF9002003F097F9C4207E
:10F6100003F094F9002003F091F9CA2003F08EF969
:10F62000002003F08BF9D22003F088F9002003F0CA
:10F6300085F9D82003F082F9002003F07FF9E0205B
:10F6400003F07CF9002003F079F9F32003F076F958
:10F65000002003F073F9E22003F076F9052003F0AF
:10F660006DF9002003F06AF90B2003F067F9002020
:10F6700003F064F91B2003F061F9002003F05EF948
:10F68000342003F05BF9002003F058F9442003F024
:10F6900055F9002003F052F94F2003F04FF90020F4
:10F6A00003F04CF9612003F049F9002003F046F91A
:10F6B000792003F043F9002003F040F9882003F09B
:10F6C0003DF9002003F03AF9972003F037F90020C4
:10F6D00003F034F9A62003F031F9002003F02EF9ED
:10F6E000B72003F02BF9002003F028F9C22003F023
:10F6F00025F9002003F022F9C72003F01FF90020AC
:10F7000003F01CF9D12003F019F9002003F016F9D9
:10F71000D62003F013F9002003F010F9DD2003F0E8
:10F720000DF9002003F00AF9F32003F007F9002097
:10F7300003F004F9E32003F007F9052003F0FEF8D5
:10F74000002003F0FBF80A2003F0F8F8002003F093
:10F75000F5F81C2003F0F2F8002003F0EFF8332056
:10F7600003F0ECF8002003F0E9F8442003F0E6F899
:10F77000002003F0E3F8502003F0E0F8002003F04D
:10F78000DDF8622003F0DAF8002003F0D7F87820E3
:10F7900003F0D4F8002003F0D1F8882003F0CEF86D
:10F7A000002003F0CBF8972003F0C8F8002003F006
:10F7B000C5F8A62003F0C2F8002003F0BFF8B72078
:10F7C00003F0BCF8002003F0B9F8C22003F0B6F84B
:10F7D000002003F0B3F8C72003F0B0F8002003F0D6
:10F7E000ADF8D12003F0AAF8002003F0A7F8D52047
:10F7F00003F0A4F8002003F0A1F8DD2003F09EF848
:10F80000002003F09BF8F32003F098F8002003F0A9
:10F8100095F8E42003F098F8012003F08FF8002019
:10F8200003F08CF8012003F089F8002003F086F83B
:10F83000022003F083F8002003F080F82A2003F070
:10F840007DF8002003F07AF83C2003F077F80020E0
:10F8500003F074F84B2003F071F8002003F06EF809
:10F860005D2003F06BF8002003F068F8742003F0CB
:10F8700065F8002003F062F8842003F05FF80020B0
:10F8800003F05CF8932003F059F8002003F056F8D9
:10F89000A22003F053F8002003F050F8B32003F047
:10F8A0004DF8002003F04AF8BE2003F047F800208E
:10F8B00003F044F8C42003F041F8002003F03EF8C0
:10F8C000CD2003F03BF8002003F038F8D32003F0FC
:10F8D00035F8002003F032F8DD2003F02FF8002087
:10F8E00003F02CF8F32003F029F8002003F026F8A9
:10F8F000E52003F029F8002003F020F8002003F0B1
:10F900001DF8002003F01AF8002003F017F8022079
:10F9100003F014F8002003F011F8292003F00EF88A
:10F92000002003F00BF83C2003F008F8002003F05F
:10F9300005F84B2003F002F8002002F0FFFF5D20E5
:10F9400002F0FCFF002002F0F9FF742002F0F6FF45
:10F95000002002F0F3FF842002F0F0FF002002F00C
:10F96000EDFF932002F0EAFF002002F0E7FFA22063
:10F9700002F0E4FF002002F0E1FFB32002F0DEFF1E
:10F98000002002F0DBFFBE2002F0D8FF002002F0D2
:10F99000D5FFC42002F0D2FF002002F0CFFFCD201F
:10F9A00002F0CCFF002002F0C9FFD32002F0C6FF16
:10F9B000002002F0C3FFDC2002F0C0FF002002F0B4
:10F9C000BDFFF32002F0BAFF002002F0B7FFE620EF
:10F9D00002F0BAFF112002F0B1FF002002F0AEFFEA
:10F9E000342002F0ABFF002002F0A8FF562002F006
:10F9F000A5FF002002F0A2FF762002F09FFF00206A
:10FA000002F09CFF772002F099FF002002F096FFA1
:10FA1000662002F093FF002002F090FF882002F0A1
:10FA20008DFF002002F08AFF992002F087FF00205E
:10FA300002F084FFBB2002F081FF002002F07EFF75
:10FA4000992002F07BFF002002F078FF662002F090
:10FA500075FF002002F072FF552002F06FFF0020BA
:10FA600002F06CFF552002F069FF002002F066FFF3
:10FA7000452002F063FF002002F060FF432002F007
:10FA80005DFF002002F05AFF442002F057FF0020E3
:10FA900002F054FFE72002F057FF322002F04EFF41
:10FAA000002002F04BFF552002F048FF002002F03A
:10FAB00045FF762002F042FF002002F03FFF662063
:10FAC00002F03CFF002002F039FF672002F036FF11
:10FAD000002002F033FF672002F030FF002002F028
